:020000040800F2
:1000000000040020390200083B0200083B020008FF
:100010003B0200083B0200083B0200083B020008CC
:100020003B0200083B0200083B020008113A0008AE
:100030003B0200083B0200083B0200083B020008AC
:100040003B0200083B0200083B0200083B0200089C
:100050003B0200083B0200083B0200083B0200088C
:100060003B0200083B0200083B020008C1150008E3
:10007000E1150008011600082116000841160008C5
:1000800061160008811600083B0200083B020008C8
:100090003B0200083B0200083B0200083B0200084C
:1000A0003B0200083B0200083B0200083B0200083C
:1000B000F11E00083B0200083B0200083B0200085A
:1000C0003B0200083B0200083B0200083B0200081C
:1000D0003B0200083B020008512200083B020008D6
:1000E0003B0200083B0200083B0200083B020008FC
:1000F0003B0200083B0200083B0200083B020008EC
:100100003B0200083B0200083B0200083B020008DB
:100110003B0200083B0200083B0200083B020008CB
:100120003B0200083B0200083B0200083B020008BB
:100130003B0200083B0200083B0200083B020008AB
:100140003B0200083B0200083B0200083B0200089B
:100150003B0200083B0200083B0200083B0200088B
:1001600072B6274880F30888264880F30988264815
:100170004EF60851CEF200010860022080F3148888
:10018000BFF36F8F00F074FA02F082F84FF0553031
:100190001E491B4A91423CBF41F8040BFAE71C4937
:1001A000184A91423CBF41F8040BFAE719491A4A30
:1001B0001A4B9A423EBF51F8040B42F8040BF8E781
:1001C00000201749174A91423CBF41F8040BFAE757
:1001D00000F066FA00F054FA134C144DAC4203DA06
:1001E00054F8041B8847F9E703F00AFD104C114D41
:1001F000AC4203DA54F8041B8847F9E700F048BA28
:10020000000400200008002000000008000000207A
:1002100000040020C05F0008000800200008002043
:10022000000800200015002060010008600100089F
:10023000600100086001000892E700F000F8FEE7A6
:100240002DE9F04FC1F80CD0C3689D46BDE8F08F92
:1002500002F0D6F9002383F311882846A047002036
:1002600003F046F8FEE702F0B3F902F041FE02F0B7
:10027000C7F900DFFEE7000053B94AB9002908BFFB
:1002800000281CBF4FF0FF314FF0FF3000F074B971
:10029000ADF1080C6DE904CE00F006F8DDF804E0DD
:1002A000DDE9022304B070472DE9F0478C4604468F
:1002B000089E002B4BD18A42154667D9B2FA82F2CA
:1002C0004AB1C2F1200701FA02F320FA07F795407C
:1002D00047EA030C94404FEA154EBCFBFEF71FFAA9
:1002E00085F80EFB17C307FB08F9210C41EA03430D
:1002F000994509D9EB1807F1FF3180F01C81994528
:1003000040F21981023F2B44A3EB0903B3FBFEF03B
:100310000EFB103300FB08F1A4B244EA0344A142EF
:1003200009D92C1900F1FF3380F00781A14240F276
:10033000048102382C4440EA07400027641A1EB1A9
:100340000023D440C6E900433946BDE8F0878B421C
:1003500009D9002E00F0EC800027C6E900013846DC
:100360003946BDE8F087B3FA83F7002F48D18B42B6
:1003700002D3824200F2FB80841A61EB0303012066
:100380009C46002EE0D0C6E9004CDDE702B9FFDE56
:10039000B2FA82F2002A40F08F800127491B4FEA0F
:1003A00015481FFA85F9B1FBF8FE08FB1E1109FB81
:1003B0000EF04FEA144C4CEA0143984207D9EB186F
:1003C0000EF1FF3102D2984200F2CD808E461B1A08
:1003D000B3FBF8F008FB103309FB00F9A4B244EAC0
:1003E0000344A14507D92C1900F1FF3302D2A145DE
:1003F00000F2B6801846A4EB090440EA0E409EE7DE
:10040000C7F12005BB4022FA05FC4CEA030C21FA97
:1004100005F44FEA1C4EB4FBFEF91FFA8CF80EFBF4
:10042000194420FA05F3B94009FB08FA19430B0CEB
:1004300043EA0444A24502FA07F200FA07F30BD993
:100440001CEB040409F1FF3080F08880A24540F2E3
:100450008580A9F102096444A4EB0A04B4FBFEF010
:100460000EFB104400FB08FA89B241EA0444A2459D
:1004700008D91CEB040400F1FF316BD2A24569D905
:100480000238644440EA0940A0FB0289A4EB0A0454
:100490004C454146CE4654D351D0002E69D05A1A0D
:1004A00064EB0E0404FA05F522FA07F3FC401D4341
:1004B000C6E90054002747E79540C2F1200321FA1E
:1004C00003F04FEA1548B0FBF8F71FFA85F908FB6F
:1004D000170024FA03F3914007FB09FC0B43190CA6
:1004E00041EA00418C4504FA02F407D9691807F182
:1004F000FF3031D28C452FD9023F2944A1EB0C01AA
:10050000B1FBF8F008FB101C00FB09FE99B241EAB0
:100510000C418E4507D9691800F1FF3318D28E457A
:1005200016D902382944A1EB0E0140EA07473AE701
:100530003746304608E70F46E6E61846FBE64345F1
:10054000ABD2B8EB020169EB0C0201389646A4E786
:100550001846E8E7084695E70746CFE781467BE778
:1005600002382C4447E7AEF1020E2B442FE7384601
:1005700007E73746E8E600BF704700BF844641EA18
:10058000000313F0030349D1403A23D30B680360FF
:100590004B6843608B688360CB68C3600B69036101
:1005A0004B6943618B698361CB69C3610B6A0362E9
:1005B0004B6A43628B6A8362CB6AC3620B6B0363D1
:1005C0004B6B43638B6B8363CB6BC36340304031B6
:1005D000403ADBD230320BD30B6803604B68436088
:1005E0008B688360CB68C36010301031103AF3D24F
:1005F0000C3205D351F8043B40F8043B043AF9D2DD
:10060000043208D0D2071CBF11F8013B00F8013BAF
:1006100001D30B8803806046704700BF082A13D3BC
:100620008B07B1D010F00303AED0C3F10403D21A8C
:10063000DB071CBF11F8013B00F8013BA4D331F8E4
:10064000023B20F8023B9FE7043AD9D3013A11F864
:10065000013B00F8013BF9D20B7803704B784370F3
:100660008B78837060467047000000000000000037
:10067000704700BF00000000000000000000000004
:10068000704700BF000000000000000000000000F4
:10069000FEE700BF000000000000000000000000B6
:1006A00084B0164B0393039B1B680293039B5B6808
:1006B000019309E0029B1A68019B1A60019B0433B5
:1006C0000193029B04330293039B9B68019A9A4215
:1006D000F0D305E0019B00221A60019B04330193D3
:1006E000039BDB68019A9A42F4D3039B1033039374
:1006F000039B034A9342D6D304B07047E8490008ED
:10070000684A00080000000000000000000000002F
:10071000704700BF00000000000000000000000063
:1007200008B5FFF7F5FF00F0CBFE064801F0A8F88A
:1007300000F0BEFC00F074FD01F0B2FD00F040F8E6
:1007400008BD00BFB44B000800000000000000001E
:100750004FF080435B6A9BB2184670470000000070
:1007600082B00346ADF806304FF08042BDF8063047
:1007700053634FF0804300221A614FF080430222FE
:10078000DA6002B0704700BF000000000000000007
:100790004FF080430022DA60704700BF0000000085
:1007A00082B00346ADF806304FF08042BDF8063007
:1007B000536302B0704700BF00000000000000005B
:1007C00008B501F0A5FB08BD000000000000000016
:1007D00000B583B00346ADF80630BDF806301846C4
:1007E000FFF7BEFF03B05DF804FB00BF0000000090
:1007F00008B5FFF7CDFF08BD0000000000000000B5
:1008000000B583B00346ADF80630BDF80630184693
:10081000FFF7C6FF03B05DF804FB00BF0000000057
:1008200008B5FFF795FF0346184608BD0000000015
:1008300082B00190019B019A1A60019B019A5A6053
:1008400002B070470000000000000000000000003F
:1008500000B583B020230193019B83F3118801F03D
:10086000B7FE03B05DF804FB0000000000000000CC
:1008700000B583B001F0C4FE00230193019B83F314
:10088000118803B05DF804FB0000000000000000C8
:1008900000B583B001900198FFF7CAFF03B05DF87F
:1008A00004FB00BF0000000000000000000000008A
:1008B00008B5FFF7CDFF08BD0000000000000000F4
:1008C00008B5FFF7D5FF08BD0000000000000000DC
:1008D00000B583B001900198FFF7DAFF03B05DF82F
:1008E00004FB00BF0000000000000000000000004A
:1008F00000B583B0019000910099019802F090FD3D
:100900000346184603B05DF804FB00BF000000007A
:1009100000B583B0019000910099019802F0A0FD0C
:1009200003B05DF804FB00BF000000000000000001
:1009300000B587B0039002910192019B002B02D178
:100940002D4801F015FE039B9B68019A9A4202D93B
:10095000039B9B680193039B1B691A46039B9B693E
:10096000D31A0593019A059B9A420DD2039B9B696A
:10097000019A19460298FFF701FE039B9A69019BB1
:100980001A44039B9A612BE0019A059B9A421CD959
:10099000039B9B69059A19460298FFF7EFFD029A9F
:1009A000059B13440293019A059BD31A0493039B5E
:1009B000DB68049A19460298FFF7E0FD039BDA68AA
:1009C000049B1A44039B9A610AE0039B9B69019A6A
:1009D00019460298FFF7D2FD039BDA68039B9A61E0
:1009E000039B9A68019BD21A039B9A60019B18464D
:1009F00007B05DF804FB00BF684A00080000000073
:100A000000B587B0039002910192019B002B02D1A7
:100A10002D4801F0ADFD039B9B68019A9A4202D9D3
:100A2000039B9B680193039B1B691A46039B5B69AD
:100A3000D31A0593019A059B9A420DD2039B5B69D9
:100A4000019A02991846FFF799FD039B5A69019B89
:100A50001A44039B5A612BE0019A059B9A421CD9C8
:100A6000039B5B69059A02991846FFF787FD029A76
:100A7000059B13440293019A059BD31A0493039B8D
:100A8000DB68049A02991846FFF778FD039BDA6841
:100A9000049B1A44039B5A610AE0039B5B69019A19
:100AA00002991846FFF76AFD039BDA68039B5A61B7
:100AB000039B9A68019BD21A039B9A60019B18467C
:100AC00007B05DF804FB00BF704A0008000000009A
:100AD00000B585B00390029101920093039B1846E4
:100AE000FFF7F6FE039B00229A60039B029ADA60EE
:100AF000039B029A9A61039B029A5A61029A019B94
:100B00001A44039B1A61039B009ADA61039B069ABD
:100B10001A6205B05DF804FB000000000000000050
:100B200000B583B001900B468DF8033001F000FE54
:100B3000019B5A69019B9B699A4205D1019B9B6865
:100B4000002B01D0012300E0002303F00103DBB2FE
:100B500083F00103DBB2002B1DD0019B9B685A1C64
:100B6000019B9A60019B5B69591C019A51619DF838
:100B700003201A70019B5A69019B1B699A4203D397
:100B8000019BDA68019B5A61019B00211846FFF71F
:100B9000BFFE002301E04FF0FF33184603B05DF8BD
:100BA00004FB00BF00000000000000000000000087
:100BB00000B585B001900091FFF77AFE0CE0019B33
:100BC00000991846FFF794FE0290029B002B03DA6F
:100BD000FFF776FE029B26E0019B9B68002BEED080
:100BE000019B9B685A1E019B9A60019B9B69591C43
:100BF000019A91611B788DF80F30019B9A69019BD6
:100C00001B699A4203D3019BDA68019B9A61019B9D
:100C1000DB69002B03D0019BDB6901989847FFF744
:100C20004FFE9DF80F30184605B05DF804FB00BF7D
:100C300000B589B00390029101920093039BDB6998
:100C40000793019B0693019B002B02D11B4801F0E7
:100C50008FFCFFF72DFE24E0019A02990398FFF71D
:100C600067FE0590059B002B09D1039B0099184650
:100C7000FFF73EFE0490049B002B15D111E0079B6B
:100C8000002B02D0079B03989847FFF719FE019AA3
:100C9000059BD31A0193029A059B13440293FFF715
:100CA00007FE019B002BD7D1FFF70AFE069A019B96
:100CB000D31A184609B05DF804FB00BF7C4A00084F
:100CC00000B585B00390029101920093039B1846F2
:100CD000FFF7FEFD039B019A9A60039B029ADA607C
:100CE000039B029A9A61039B029A5A61029A019BA2
:100CF0001A44039B1A61039B009ADA61039B069ACC
:100D00001A6205B05DF804FB00000000000000005E
:100D100000B587B003900B4601928DF80B30FFF7BA
:100D2000C7FD0CE0039B01991846FFF7E1FD059014
:100D3000059B002B03DAFFF7C3FD059B25E0039B12
:100D40009B68002BEED0039B9B685A1E039B9A6006
:100D5000039B5B69591C039A51619DF80B201A7023
:100D6000039B5A69039B1B699A4203D3039BDA686E
:100D7000039B5A61039BDB69002B03D0039BDB6958
:100D800003989847FFF79CFD0023184607B05DF8CD
:100D900004FB00BF00000000000000000000000095
:100DA00000B585B0019001F0C3FC019B5A69019B1D
:100DB0009B699A4205D1019B9B68002B01D00123BE
:100DC00000E0002303F00103DBB283F00103DBB298
:100DD000002B1ED0019B9B685A1C019B9A60019BB3
:100DE0009B69591C019A91611B788DF80F30019B0A
:100DF0009A69019B1B699A4203D3019BDA68019BA4
:100E00009A61019B00211846FFF782FD9DF80F3083
:100E100001E04FF0FF33184605B05DF804FB00BF5A
:100E200000B589B00390029101920093039BDB69A6
:100E30000793019B0693019B002B02D11B4801F0F5
:100E400097FBFFF735FD24E0019A02990398FFF71D
:100E5000D7FD0590059B002B09D1039B00991846EF
:100E6000FFF746FD0490049B002B15D111E0079B72
:100E7000002B02D0079B03989847FFF721FD019AAA
:100E8000059BD31A0193029A059B13440293FFF723
:100E90000FFD019B002BD7D1FFF712FD069A019B96
:100EA000D31A184609B05DF804FB00BF8C4A00084D
:100EB00082B00190019B019A1A6002B0704700BF96
:100EC00000B583B001900198FFF7F2FF03B05DF821
:100ED00004FB00BF00000000000000000000000054
:100EE00000B583B0019000910099019802F0A8FB31
:100EF00003B05DF804FB00BF00000000000000002C
:100F000000B585B0039002910192039B03F130007C
:100F10004FF0FF33019A0299FFF782FF034618460C
:100F200005B05DF804FB00BF0000000000000000F9
:100F300000B585B0039002910192039B03F10C0070
:100F40004FF0FF33019A0299FFF772FE03461846ED
:100F500005B05DF804FB00BF0000000000000000C9
:100F600000B583B001900B468DF80330019B303300
:100F70009DF803104FF0FF321846FFF7C9FE0346F5
:100F8000184603B05DF804FB0000000000000000FC
:100F900000B583B00190019B0C334FF0FF31184630
:100FA000FFF706FE0346184603B05DF804FB00BFDA
:100FB00000B585B003900B4601928DF80B30039B72
:100FC00030339DF80B10019A1846FFF7A1FE034637
:100FD000184605B05DF804FB0000000000000000AA
:100FE00000B583B001900091019B0C330099184625
:100FF000FFF7DEFD0346184603B05DF804FB00BFB3
:1010000000B585B00390029101920093039B03F118
:101010003000009B019A0299FFF702FF0346184631
:1010200005B05DF804FB00BF0000000000000000F8
:1010300000B585B00390029101920093039B03F1E8
:101040000C00009B019A0299FFF7F2FD0346184637
:1010500005B05DF804FB00BF0000000000000000C8
:1010600000B587B0039002910192039B0593059B05
:10107000002B02D10A4801F07BFA029B002B08D01A
:10108000012B07D1019B002B04D0054801F070FA19
:1010900000E000BF0023184607B05DF804FB00BF66
:1010A000C44A00080000000000000000000000002A
:1010B00008B501F0DDF808BD0000000000000000E8
:1010C00000B587B0059004910392059B124A1A60FF
:1010D000059B04331846FFF7F3FE059B01221A72A5
:1010E000059B03F10C00059B03F15401059B009344
:1010F000049B1022FFF7ECFC059B03F13000059BDD
:1011000003F16401059B0093039B1022FFF7D8FDB8
:1011100007B05DF804FB00BF9C4A00080000000017
:1011200000B583B001900B468DF8033001F000FB51
:10113000019B002B02D1114801F01AFA019B5B6957
:10114000002B05D1019B043304211846FFF7C8FE8C
:10115000019B0C339DF8032011461846FFF7E0FC75
:101160000346002B06DA019B04334FF480611846D6
:10117000FFF7B6FE03B05DF804FB00BFCC4A0008E1
:1011800000B583B020230193019B83F3118801F004
:101190001FFA03B05DF804FB00000000000000002F
:1011A00000B583B001F02CFA00230193019B83F377
:1011B000118803B05DF804FB00000000000000008F
:1011C00008B5FFF7DDFF08BD0000000000000000CB
:1011D00008B5FFF7E5FF08BD0000000000000000B3
:1011E00000B583B001904FF0FF31019802F0E0F8B4
:1011F0000346184603B05DF804FB00BF0000000082
:1012000000B583B00190019802F002FA03B05DF8D6
:1012100004FB00BF00000000000000000000000010
:1012200008B500F0E5FC08BD00000000000000006B
:1012300000B583B00190019B01221A70019B00222E
:101240005A60019B00229A60019B0C331846FFF7FD
:10125000D7FF03B05DF804FB0000000000000000B1
:1012600000B583B001900091019B002B02D0009B40
:10127000002B02D1094801F07BF9FFF7A1FF019B88
:10128000009A5A60019800F0D3FC019B02221A7068
:10129000FFF79EFF03B05DF804FB00BFDC4A0008C7
:1012A00000B583B00190019B002B02D1094801F0E9
:1012B0005FF9FFF785FF019B5B68DA68019B5B685C
:1012C0009B68012101FA02F25A61FFF781FF03B026
:1012D0005DF804FBE84A0008000000000000000080
:1012E00000B583B00190019B002B02D1094801F0A9
:1012F0003FF9FFF765FF019B5B68DA68019B5B685C
:101300009B68012101FA02F21A61FFF761FF03B045
:101310005DF804FBF44A0008000000000000000033
:1013200000B585B0039002910192039B002B05D07C
:10133000029B002B02D0019B002B02D1114801F02F
:1013400017F9039B5B681B78002B07D0029B03F007
:101350000103002B02D00B4801F00AF9FFF730FF20
:10136000039B03221A70019A0299039800F008FD6A
:10137000039B08331846FFF733FFFFF729FF05B03B
:101380005DF804FB004B00080000000000000000B6
:1013900000B585B0039002910192039B002B05D00C
:1013A000029B002B02D0019B002B02D1114801F0BF
:1013B000DFF8039B5B681B78002B07D0029B03F0D0
:1013C0000103002B02D00B4801F0D2F8FFF7F8FE22
:1013D000039B03221A70019A0299039800F010FDF2
:1013E000039B08331846FFF7FBFEFFF7F1FE05B03D
:1013F0005DF804FB084B000800000000000000003E
:1014000082B001900091009BDBB2114A1B01D9B25E
:10141000019B134403F540730A461A70019B03F0C5
:101420001F020B49019B5B09012000FA02F26033A5
:1014300041F82320019B03F01F020549019B5B0932
:10144000012000FA02F241F8232002B0704700BFE9
:1014500000E100E0000000000000000000000000CB
:1014600008B506210620FFF7CBFF06210720FFF76E
:10147000C7FF06210820FFF7C3FF06210920FFF759
:10148000BFFF06210A20FFF7BBFF06211720FFF749
:10149000B7FF06212820FFF7B3FF08BD00000000BA
:1014A000034B1B68024A43F480731360704700BF0C
:1014B000007000400000000000000000000000007C
:1014C00008B5184B1B69174B4FF0FF321A61154BCB
:1014D0001B69144B00221A61124B1B69114BDB680C
:1014E000104B4FF0FF32DA600E4BDB680D4B0022E1
:1014F000DA600C4BDB680B4BDB690A4A43F0805324
:10150000D361084BDB69074BDB69064A43F0006394
:10151000D361044BDB69FFF7C3FF00F0C1F8FFF7AD
:101520009FFF08BD00100240000000000000000006
:101530001F4B1B681E4A43F0010313601C4B1B68C2
:1015400003F00203002BF9D0194B1B68184A03F073
:10155000F9031360164B00225A60154B5B6803F0C9
:101560000C03002BF9D1124B5B68114A43F4201392
:1015700053600F4B1B680E4A43F0807313600C4B93
:101580001B6803F00073002BF9D0094B094A5A601D
:10159000094B11221A60064B5B68054A43F00203AF
:1015A0005360034B5B6803F00C03082BF9D17047C1
:1015B00000100240006468000020024000000000AB
:1015C00008B501F065F8044800F022F901F088F848
:1015D00002F05EFA08BD00BF144B000800000000D6
:1015E00008B501F055F8044800F012F901F078F858
:1015F00002F04EFA08BD00BF244B000800000000B6
:1016000008B501F045F8044800F002F901F068F867
:1016100002F03EFA08BD00BF344B00080000000095
:1016200008B501F035F8044800F0F2F801F058F878
:1016300002F02EFA08BD00BF444B00080000000075
:1016400008B501F025F8044800F0E2F801F048F888
:1016500002F01EFA08BD00BF544B00080000000055
:1016600008B501F015F8044800F0D2F801F038F898
:1016700002F00EFA08BD00BF644B00080000000035
:1016800008B501F005F8044800F0C2F801F028F8A8
:1016900002F0FEF908BD00BF744B00080000000016
:1016A00082B0114B00221A600F4B00225A600023B7
:1016B000019310E00D4A019B1B01134404331B6886
:1016C00000221A60084A019B0133002142F83310BE
:1016D000019B01330193019B062BEBDD044B4FF083
:1016E000FF325A6002B0704700080020144B000817
:1016F00000000240000000000000000000000000A8
:1017000000B58BB0039002910192009301F010F8A4
:10171000039B062B06D8039B0893039B0793089B08
:10172000099364E0364800F023FF002364E00122BF
:10173000099B02FA03F30693324B1A68069B134087
:10174000002B51D1099B1B012F4A134405932D49AE
:10175000099B0133019A41F833202A4A099B01333E
:10176000DB001344009A5A60264B1A68069B134309
:10177000244A1360069B03F07F03002B07D0234B02
:101780005B69224A43F001035361204B5B69019B73
:10179000002B12D01B4B5A68059B9B681340002BF3
:1017A00005D1059BDB7B02991846FFF729FE154BF7
:1017B0005A68069B1343134A5360059B5B681A687B
:1017C000059B5B6822F00F021A60059B5B7B1A4643
:1017D0000E2303FA02F2059B1B685A60059B5B68A7
:1017E00000221A60059B07E0099B01330993099ABF
:1017F000079B9A429BD9002318460BB05DF804FB67
:10180000844B000800080020144B00080010024020
:1018100000B585B00190019B9B7B0393019B1B68E6
:101820001B68019A527BD34003F00E030293019B85
:101830005B681A68029B1340002B1CD0019B5B7BEA
:101840001946019B1B68029A8A405A600B4A039B07
:10185000013352F83330002B0DD0084A039B01337B
:1018600052F833200549039B0133DB000B445B68CE
:1018700002991846904705B05DF804FB0008002067
:1018800082B00190224B9B69214A43F07D03936112
:101890001F4B9B691F4A019B1B68D3601D4A019B1C
:1018A0009B6853601B4A019B5B6813601A4A019B4B
:1018B000DB68D360184A019B5B695360164A019B41
:1018C0001B691360154A019B9B69D360134A019BF6
:1018D0001B6A5360114A019BDB691360104A019B2C
:1018E0005B6AD3600E4A019BDB6A53600C4A019B22
:1018F0009B6A13600B4A019B1B6BD360094A019BD7
:101900009B6B5360074A019B5B6B136002B070478F
:101910000010024000080140000C0140001001408E
:101920000014014000180140000000000000000009
:101930008AB0039002910192019B032B03D1039B78
:10194000029A1A6105E0019B042B02D1039B029AC3
:101950005A61294A019B13441B7804930023069380
:10196000069B0793079B0893089B09930023059305
:101970002DE0089B1B010893099B1B010993069B03
:101980001B010693079B1B010793029B03F0800337
:10199000002B04D1089B43F00F03089303E0069A41
:1019A000049B13430693029B03F40043002B04D1D2
:1019B000099B43F00F03099303E0079A049B134329
:1019C0000793029B5B000293059B01330593059BE4
:1019D000072BCED9039B5A68099B1A40079B1A43D1
:1019E000039B5A60039B1A68089B1A40069B1A4384
:1019F000039B1A600AB07047944B00080000000077
:101A000000B583B020230193019B83F3118800F07C
:101A10000FFE03B05DF804FB0000000000000000B2
:101A200000B583B000F01CFE00230193019B83F3FB
:101A3000118803B05DF804FB000000000000000006
:101A400000B583B00190019800F092FD03B05DF8FD
:101A500004FB00BF000000000000000000000000C8
:101A600008B5FFF7CDFF08BD000000000000000032
:101A700008B5FFF7D5FF08BD00000000000000001A
:101A800000B583B0019000910099019801F0B0FC7D
:101A900003B05DF804FB00BF000000000000000080
:101AA00000B583B001900091009B03F00803002B68
:101AB00002D04148FFF7C4FF019B5B681B78002BF5
:101AC00028D0009B03F00403002B09D0019B5B6826
:101AD0005B68002B04D0019B5B685B6801989847AA
:101AE000009B03F00203002B61D0019B5B685B68E5
:101AF000002B5CD0019B04221A70019B5B685B6821
:101B000001989847019B1B78042B50D1019B03221D
:101B10001A704DE0019B5B6A5B681A68019B5B6A07
:101B20005B6822F00F021A60019B5B6A5B7B1A46BE
:101B30000E2303FA02F2019B5B6A1B685A60019B49
:101B40001B6A5B681A68019B1B6A5B6822F00F02C4
:101B50001A60019B1B6A5B7B1A460E2303FA02F292
:101B6000019B1B6A1B685A60019B5B685B68002BCA
:101B70000FD0019B04221A70019B5B685B6801987F
:101B80009847019B1B78042B06D1019B02221A70F7
:101B900002E0019B02221A70FFF762FF019B0833EB
:101BA00000211846FFF76CFFFFF762FF00E000BF5F
:101BB00003B05DF804FB00BFA84B00080000000064
:101BC00000B583B001900091009B03F00803002B47
:101BD00002D00348FFF734FF03B05DF804FB00BFF9
:101BE000A84B0008000000000000000000000000FA
:101BF00008B50A48FFF71CFB084B094ADA61074B96
:101C000000221A62054B00225A62044B41F20A027A
:101C10009A62024B41F21802DA6208BD40080020C5
:101C2000003800400000000000000000000000003C
:101C300000B583B00190019B1B78012B2DD1019B36
:101C4000494A934219D1019B484A0A210320FFF7D0
:101C500057FD0246019B1A62019B454A0A21042056
:101C6000FFF74EFD0246019B5A62424BDB69414A37
:101C700043F48043D3613F4BDB69019BDB6903F194
:101C80000C02019B1B6A5B689A60019BDB6903F194
:101C90000C02019B5B6A5B689A60019B5B681B8A14
:101CA00003F40063002B0CD1019B9B6A23F4706248
:101CB000019B9A62019BDB6A23F47062019BDA62EA
:101CC0000FE0019B9B6A23F4706343F4A062019BC5
:101CD0009A62019BDB6A23F4706343F4A062019B68
:101CE000DA62019B5B681B78002B0CD0019B9B6A1E
:101CF00043F02402019B9A62019BDB6A43F02402B9
:101D0000019BDA620BE0019B9B6A23F02402019B9A
:101D10009A62019BDB6A23F02402019BDA62019B39
:101D2000DB691A68019BDB6922F040021A60019BA3
:101D30005B681B8A43F441739AB2019BDB691A60AA
:101D4000019B5B685B8A43F007039AB2019BDB69E6
:101D50005A60019BDB691A68019BDB6942F0400213
:101D60001A6003B05DF804FB40080020A11A0008C7
:101D7000C11B00080010024000000000000000002D
:101D800084B0039002910192039B1B6A5B681A4A1C
:101D9000DA60039B1B6A5B68029A5A60039B1B6AAA
:101DA0005B68039A926A1A60039B5B6A5B68019A9C
:101DB000DA60039B5B6A5B68029A5A60039BDA6A8B
:101DC000039B5B6A5B6842F080021A60039B1B6A9C
:101DD0005B681A68039B1B6A5B6842F001021A6029
:101DE000039B5B6A5B681A68039B5B6A5B6842F0F3
:101DF00001021A6004B07047700800200000000063
:101E000084B0039002910192039B1B6A5B68019A64
:101E1000DA60039B1B6A5B68029A5A60039B9A6AAA
:101E2000039B1B6A5B6842F080021A60039B5B6A3B
:101E30005B68114ADA60039B5B6A5B68029A5A60CE
:101E4000039B5B6A5B68039AD26A1A60039B1B6AF6
:101E50005B681A68039B1B6A5B6842F001021A60A8
:101E6000039B5B6A5B681A68039B5B6A5B6842F072
:101E700001021A6004B07047A64B00080000000081
:101E800000B583B020230193019B83F3118800F0F8
:101E9000CFFB03B05DF804FB000000000000000071
:101EA00000B583B000F0DCFB00230193019B83F3BA
:101EB000118803B05DF804FB000000000000000082
:101EC00008B5FFF7DDFF08BD0000000000000000BE
:101ED00008B5FFF7E5FF08BD0000000000000000A6
:101EE00008B500F055FB08BD000000000000000030
:101EF00008B500F0CDFB00F04BF800F0F1FB01F06D
:101F0000C7FD08BD00000000000000000000000048
:101F100008B51A4BDB69194A43F00103D361174B2B
:101F2000DB69174B5B68164A43F4006353604FF05C
:101F3000804345F6BF529A624FF080434FF6FF72DE
:101F4000DA624FF0804300229A614FF08043002212
:101F50005A634FF080430022DA604FF08043002242
:101F60005A604FF0804301225A614FF080430122B2
:101F70001A6008211C20FFF743FA08BD0010024038
:101F8000002004E00000000000000000000000004D
:101F900000B583B04FF080430193019B1B69009310
:101FA000019BDB68DBB2009A13400093009BDA438D
:101FB000019B1A61009B03F00203002B05D0FFF781
:101FC0007FFFFFF78DFFFFF783FF03B05DF804FB92
:101FD00000B583B020230193019B83F3118800F0A7
:101FE00027FB03B05DF804FB0000000000000000C8
:101FF00000B583B000F034FB00230193019B83F311
:10200000118803B05DF804FB000000000000000030
:1020100008B5FFF7DDFF08BD00000000000000006C
:1020200008B5FFF7E5FF08BD000000000000000054
:1020300000B583B0019000910099019801F000FB78
:1020400003B05DF804FB00BF0000000000000000CA
:1020500000B585B001900B46ADF802300023039324
:10206000BDF8023003F00803002B03D0039B43F0BC
:1020700080030393BDF8023003F00103002B03D06B
:10208000039B43F020030393BDF8023003F00203E7
:10209000002B03D0039B43F040030393BDF80230B1
:1020A00003F00403002B03D0039B43F480730393DA
:1020B000019B043303991846FFF7BAFF05B05DF89A
:1020C00004FB00BF00000000000000000000000052
:1020D00000B589B00190019B5B6F0693069BDB689E
:1020E000ADF81630069B1B68ADF81E30BDF81E30EB
:1020F00003F48073002B0ED0FFF78AFF019B04339B
:102100004FF400711846FFF793FF069B6FF480723F
:102110001A60FFF785FFFFF77BFF24E0BDF81E3054
:1021200003F00F03002B05D0BDF81E3019460198AF
:10213000FFF78EFF069B5B68DAB2019B93F878305D
:1021400013408DF80F30BDF81E3003F02003002B34
:1021500005D09DF80F3019460198FEF7E1FF069B68
:102160001B68ADF81E30BDF81E3003F02F03002BA6
:10217000D4D1FFF755FFBDF8163003F08003002BD4
:1021800022D0BDF81E3003F08003002B1CD0FFF7D7
:102190003FFF019B30331846FEF702FE0490049B7C
:1021A000002B0CDA019B043308211846FFF740FF8F
:1021B000BDF8163023F08002069BDA6002E0049A34
:1021C000069B5A60FFF72CFFBDF8163003F0400362
:1021D000002B27D0BDF81E3003F04003002B21D088
:1021E000FFF716FF019B5A6C019B9B6C9A4205D12D
:1021F000019B9B6B002B01D0012300E0002303F027
:102200000103DBB2002B0BD0019B043310211846D5
:10221000FFF70EFFBDF8163023F04002069BDA6090
:10222000FFF7FEFE09B05DF804FB00BF00000000F0
:1022300082B00190034BDB68024A43F0C003D360D5
:1022400002B07047004400400000000000000000A1
:1022500008B500F01DFA0448FFF73AFF00F040FA15
:1022600001F016FC08BD00BF74080020000000004B
:1022700008B5044A00210448FEF722FF024B034A36
:102280005A6708BD3122000874080020004400404D
:1022900008B5FFF74DF908BD000000000000000080
:1022A000704700BF000000000000000000000000B8
:1022B00000B583B003460091ADF80630009BB3F53E
:1022C000803F02D3064800F053F9009B9AB2BDF854
:1022D000063013449BB2184603B05DF804FB00BF00
:1022E000104C00080000000000000000000000008A
:1022F00082B003460A46ADF806301346ADF8043006
:10230000BDF80420BDF80630D31A9BB2184602B0BF
:10231000704700BF00000000000000000000000047
:1023200008B5FEF765FA08BD0000000000000000D7
:1023300000B583B00346ADF80630BDF80630184648
:10234000FEF75EFA03B05DF804FB00BF000000007A
:1023500008B5FEF765FA0346184608BD0000000000
:1023600000B583B000F01CF900230193019B83F3B7
:10237000118862B603B05DF804FB00BF00000000E6
:1023800000B583B020230193019B83F3118800F0F3
:102390004FF903B05DF804FB0000000000000000EE
:1023A00000B583B000F05CF900230193019B83F337
:1023B000118803B05DF804FB00000000000000007D
:1023C00008B5FFF7C5FF0346184608BD000000002A
:1023D00010B586B000F0ACF9424BDB690593FFF70E
:1023E000EFFF0346ADF80A303E4B1B8DBDF80A20C7
:1023F00011461846FFF77CFF0390059B9B68039AE4
:102400009A4234D3374B1A8D059B9B689BB2134479
:102410009AB2344B1A85059B9B68039AD31A03938F
:10242000059B1B68304A5A60059B1B682D4AD36187
:10243000059BDB680193059B0022DA60294BDB6971
:10244000294A934201D1FFF76BFFFFF7A9FF059BD4
:102450001A69019B10469847FFF792FF214BDB69F1
:102460000593059B9B68039A9A42CBD2B7E71D4B15
:10247000DB691D4A934233D01A4B1A8D039B9BB2E2
:1024800013449AB2174B1A85164BDB699968154BA2
:10249000DB69039A8A1A9A60059B9C68114B1B8D15
:1024A000BDF80A2011461846FFF722FF0346E31A3B
:1024B0000493049B012B02D80223049306E0049B9F
:1024C000B3F5803F02D34FF6FF730493BDF80A3093
:1024D00004991846FFF7ECFE03461846FFF728FF5D
:1024E00006B010BDC8090020E4090020000000006B
:1024F00008B501F035F901F09BF901F009FA08BDC2
:1025000082B00190FEE700BF000000000000000064
:1025100008B500F085FB00F0ABF9FFF7E9FF104BC1
:1025200000221A630E4B00225A6300F0F1FF802252
:102530000C490D4800F0CCFD0246094B9A61084B4E
:102540009B690022DA61064B9B69012283F82020F7
:1025500001F076FAFFF704FF044800F059FE08BDC9
:10256000C8090020EC4C0008000A0020F84B0008C5
:1025700082B0019072B6024A019BD362FEE700BFAF
:10258000C80900200000000000000000000000005A
:1025900008B500F0CDF8FFF71BFF08BD00000000F4
:1025A00008B5064B1B6B002B03D1044B5B6B002B58
:1025B00002D00348FFF7DCFF08BD00BFC8090020B8
:1025C0001C4C00080000000000000000000000009B
:1025D00008B5074B1B6B002B03D1054B5B6B002B26
:1025E00002D00448FFF7C4FF014B01225A6308BD23
:1025F000C8090020244C0008000000000000000072
:1026000008B5074B1B6B002B03D1054B5B6B002BF5
:1026100002DC0448FFF7ACFF014B00225A6308BDFF
:10262000C80900202C4C0008000000000000000039
:1026300008B5074B1B6B002B03DD054B5B6B002BB9
:1026400002D00448FFF794FF014B01225A6308BDF2
:10265000C8090020344C0008000000000000000001
:1026600008B5074B1B6B002B03DD054B5B6B002B89
:1026700002DC0448FFF77CFF014B00225A6308BDCF
:10268000C80900203C4C00080000000000000000C9
:1026900000B583B020230193019B83F311880C4B79
:1026A0001B6B002B03DB0A4B5B6B002B02D0094832
:1026B000FFF75EFF064B1B6B0133054A13630023D4
:1026C0000093009B83F3118803B05DF804FB00BF07
:1026D000C8090020444C0008000000000000000071
:1026E00000B583B020230193019B83F311880C4B29
:1026F0001B6B002B03DD0A4B5B6B002B02D00948E0
:10270000FFF736FF064B1B6B013B054A13630023A3
:102710000093009B83F3118803B05DF804FB00BFB6
:10272000C80900204C4C0008000000000000000018
:1027300008B5064B1B6B002B03DB044B5B6B002BBC
:1027400002DC0348FFF714FF08BD00BFC8090020E2
:10275000544C0008000000000000000000000000D1
:1027600008B5064B1B6B002B03D1044B5B6B002B96
:1027700002DC0348FFF7FCFE08BD00BFC8090020CB
:102780005C4C000800000000000000000000000099
:1027900000B583B003460091ADF80630009BB3F559
:1027A000803F02D30648FFF7E3FE009B9AB2BDF8D4
:1027B000063013449BB2184603B05DF804FB00BF1B
:1027C000704C000800000000000000000000000045
:1027D00082B003460A46ADF806301346ADF8043021
:1027E000BDF80420BDF80630D31A9BB2184602B0DB
:1027F000704700BF00000000000000000000000063
:1028000000B583B00346ADF80630BDF80630184673
:10281000FDF7DEFF03B05DF804FB00BF0000000021
:1028200008B5FDF7E5FF08BD00000000000000004E
:1028300000B583B00346ADF80630BDF80630184643
:10284000FDF7DEFF03B05DF804FB00BF00000000F1
:1028500008B5FDF7E5FF0346184608BD0000000077
:1028600008B5FFF7F5FF0346184608BD0000000055
:10287000064B074ADA61054B054A1A62034B4FF0D3
:10288000FF325A62014B00221A857047C8090020A6
:10289000E40900200000000000000000000000002B
:1028A00000B589B00390029101920093FFF740FFB9
:1028B000039B002B05D0019B002B02D0029B002B19
:1028C00002D15348FFF754FE039B009A1A61039B01
:1028D000019ADA60FFF7C4FF0346ADF81230029B9D
:1028E000012B01D8022302934A4BDB694A4A9342E7
:1028F00024D1484ABDF812301385464A039BD36160
:10290000444A039B1362039B434A1A60039B424A57
:102910005A60039B029A9A60029BB3F5803F02D3F0
:102920004FF6FF7302933B4B1B8D02991846FFF73E
:102930002FFF03461846FFF763FF65E0354BDB6961
:102940000793344B1B8DBDF8122011461846FFF734
:102950003FFF0246029B134406932E4B1B8DBDF88E
:10296000122011461846FFF733FF0246069B93429A
:1029700008D2079B9B68069AD31A0693079B1B688D
:10298000079320E0079B9B68069A9A421BD2069BFE
:102990000593059BB3F5803F02D34FF6FF73059374
:1029A0001C4B1B8D05991846FFF7F2FE034618468F
:1029B000FFF73EFF07E0079B9B68069AD31A069332
:1029C000079B1B680793079B9B68069A9A42F2D85D
:1029D000039B079A1A60039B1B685A68039B5A6003
:1029E000039B5B68039A1A60079B039A5A60039BD8
:1029F000069A9A60079B9A68069BD21A079B9A6070
:102A0000044B4FF0FF325A6209B05DF804FB00BF7F
:102A1000644C0008C8090020E40900200000000000
:102A200010B584B00190FFF783FE019B002B02D10B
:102A30003A48FFF79DFD3A4BDB69019A9A421BD059
:102A4000019B5B68019A12681A60019B1B68019ADE
:102A500052685A60019B0022DA60019B1B68314A70
:102A6000934258D0019B1B689968019B9A68019B0F
:102A70001B680A449A604FE0019B1B68284AD36197
:102A8000274BDB69274A5A60019B0022DA60244BFE
:102A9000DB69244A934202D1FFF7C2FE3CE0204B9F
:102AA000DB699968019B9A681D4BDB690A449A604F
:102AB0001B4B1C8DFFF7D4FE034619462046FFF73B
:102AC00087FE0290164BDB699B68029A9A4223D2DA
:102AD000134BDB699A68029BD31A0393039B012B68
:102AE00003D8029B023303930AE0039A029B134428
:102AF0000393039BB3F5803F02D34FF6FF73039319
:102B0000074B1B8D03991846FFF742FE03461846F4
:102B1000FFF78EFE00E000BF04B010BD7C4C000843
:102B2000C8090020E40900200000000000000000A7
:102B300082B00190019B019A1A60019B019A5A6030
:102B400002B070470000000000000000000000001C
:102B500084B00190019B1B680393039B1A68019B3F
:102B60001A60019B1B68019A5A60039B184604B0C7
:102B7000704700BF000000000000000000000000DF
:102B800082B00190019B5B68019A12681A60019BF8
:102B90001B68019A52685A60019B184602B0704740
:102BA00000B583B020230193019B83F31188FFF7C5
:102BB0003FFD03B05DF804FB0000000000000000D2
:102BC00000B583B0FFF74CFD00230193019B83F315
:102BD000118803B05DF804FB000000000000000055
:102BE00000B583B00190FFF7A3FD019BDB68002BCC
:102BF00014BF01230023DBB2184603B05DF804FBC9
:102C000000B583B00190FFF793FD019B9B685A1CB0
:102C1000019B9A6003B05DF804FB00BF0000000058
:102C200008B50648FFF784FF044B00229A60034B67
:102C3000024A1A61014B014A5A6108BDC8090020C5
:102C400000B585B00190FFF773FD019B002B02D109
:102C50001248FFF78DFC019B002283F82020104BC7
:102C60000393039B1B680393039B9A68019B9B68D8
:102C70009A42F6D2019B039A1A60039B5A68019B01
:102C80005A60019B5B68019A1A60039B019A5A6023
:102C9000019B184605B05DF804FB00BF8C4C000892
:102CA000C809002000000000000000000000000033
:102CB00000B585B00190FFF73BFD019B002B02D1D1
:102CC0001248FFF755FC019B002283F82020104B8F
:102CD0000393039B1B680393039B9A68019B9B6868
:102CE0009A42F6D8019B039A1A60039B5A68019B8B
:102CF0005A60019B5B68019A1A60039B019A5A60B3
:102D0000019B184605B05DF804FB00BF984C000815
:102D1000C8090020000000000000000000000000C2
:102D200000B585B003468DF807300F4B9B690393C0
:102D3000FFF716FD039B9DF8072083F820200A4823
:102D4000FFF706FF0246084B9A61074B9B69012279
:102D500083F82020044B9B6903991846FDF770FA0D
:102D600005B05DF804FB00BFC809002000000000AA
:102D700000B585B00190019B0393FFF711FF039B02
:102D800093F82030072B23D801A252F823F000BF7C
:102D9000B12D0008D12D0008D12D0008B72D000855
:102DA000CB2D0008C12D0008D12D0008CB2D000827
:102DB000FFF706FF15E0039B5B6A00221A6007E03D
:102DC000039B5B6A1846FFF71BFF0398FFF7D8FECB
:102DD000039B4FF0FF325A620398FFF731FFFFF772
:102DE000EFFE05B05DF804FB0000000000000000ED
:102DF00000B589B0034600918DF80730FFF7B0FCAD
:102E0000009BB3F1FF3F17D0114B9B6903A8114AF8
:102E10000099FFF745FD9DF807301846FFF780FF42
:102E200003AB1846FFF7DCFE0346002B09D003ABCB
:102E30001846FFF7F5FD04E09DF807301846FFF748
:102E40006FFF034B9B695B6A184609B05DF804FB92
:102E5000C8090020712D00080000000000000000DB
:102E600000B585B001900091114B9B690393FFF76A
:102E700077FC019B009A5A62019B9A68039B9B68AE
:102E80009A4203D80198FFF7DBFE0EE00398FFF7A4
:102E90000FFF0390064A019B9361019B012283F877
:102EA000202003990198FDF7CBF905B05DF804FBEC
:102EB000C809002000000000000000000000000021
:102EC00082B0094B1B689B680193074B9B699B6809
:102ED0000093019A009B9A428CBF01230023DBB22E
:102EE000184602B0704700BFC8090020000000006B
:102EF00000B583B00D4B9B6901930C48FFF728FE8A
:102F000002460A4B9A61094B9B69012283F82020F3
:102F10000198FFF7CDFE0190044B9B69019918467B
:102F2000FDF78EF903B05DF804FB00BFC80900206F
:102F300082B00190019B019A1A6002B0704700BFF5
:102F400082B00190019B1B68019A9A4214BF012331
:102F50000023DBB2184602B0704700BF000000003B
:102F600082B00190019B019A1A60019B019A5A60FC
:102F700002B07047000000000000000000000000E8
:102F800082B00190019B1B68019A9A4214BF0123F1
:102F90000023DBB2184602B0704700BF00000000FB
:102FA00084B00190019B1B680393039B1A68019BEB
:102FB0001A60039B184604B0704700BF0000000071
:102FC00082B001900091019B009A1A60009B5A68A0
:102FD000019B5A60019B5B68019A1A60009B019AF1
:102FE0005A6002B0704700BF0000000000000000FF
:102FF00084B00190019B1B680393039B1A68019B9B
:103000001A60019B1B68019A5A60039B184604B022
:10301000704700BF0000000000000000000000003A
:1030200000B583B020230193019B83F31188FFF740
:10303000CFFA03B05DF804FB0000000000000000C0
:1030400000B583B0FFF7DCFA00230193019B83F303
:10305000118803B05DF804FB0000000000000000D0
:10306000014B9B6918467047C8090020000000000A
:1030700000B583B00190019B002B02D10448FFF7FB
:1030800077FA01990820FFF7B3FE03B05DF804FB5F
:10309000E04C0008000000000000000000000000FC
:1030A00000B585B0019000910198FFF7A1FF039052
:1030B000039B009A5A620398FFF7C2FD05B05DF8C2
:1030C00004FB00BF00000000000000000000000042
:1030D00000B585B0039002910192039B019A9A601A
:1030E000039B022283F82020039B002283F82120E7
:1030F000039B019ADA63039B00229A63039B0022DD
:103100005A63039B012283F82220039B029A9A614F
:10311000039B0E4A1A610D4B5A69039B5A61039B2C
:103120005B69039A1A61094A039B5361039B283325
:103130001846FFF7FDFE039B2C331846FFF710FFE0
:10314000039B184605B05DF804FB00BFC8090020CA
:1031500000B585B00190FFF7EBFA019B002B02D17F
:103160002948FFF705FA019B5B6803F00703002B72
:1031700013D1019B9B6803F00703002B0DD1019B2A
:103180009A68019B5B689A4207D9019B9B681A4623
:10319000019B5B68D31AC72B02D81B48FFF7E8F9DD
:1031A000019BDB68FF2B03D8019B1B69002B02D11D
:1031B0001548FFF7DDF9019B9B68483B0393019B92
:1031C0005A68039BDA61039BA3F12402039BDA6034
:1031D000019B1A69039BDB681A60019B5A69039B78
:1031E000DB685A60039BDB68084A1A62019B196816
:1031F000019BDB681A460398FFF76AFF03461846EF
:1032000005B05DF804FB00BFB44C00085102000893
:1032100000B585B00190FFF703FF0198FFF798FF15
:10322000039000210398FFF71BFEFFF709FF039BA4
:10323000184605B05DF804FB000000000000000027
:1032400000B587B00390029101920093039B002B7D
:1032500012D0039B03F00703002B0DD1029BC72B59
:103260000AD9029B03F00703002B05D1019BFF2B1A
:1032700002D8009B002B02D11748FFF779F9FFF71E
:10328000CFFE029B483B039A13440593059B039A88
:10329000DA61059BA3F12402059BDA60059BDB68DC
:1032A000009A1A60059BDB68089A5A60059BDB68E8
:1032B0000A4A1A62019A0A490598FFF709FF059020
:1032C00000210598FFF7CCFDFFF7BAFE059B1846D5
:1032D00007B05DF804FB00BFCC4C000851020008A9
:1032E000AC4C0008000000000000000000000000DE
:1032F00000B583B00190FFF793FE019800F008F845
:1033000003B05DF804FB00BF0000000000000000F7
:1033100000B585B001901A4B9B690393039B019AFA
:103320005A6208E0039B28331846FFF739FE03462C
:103330001846FFF785FC039B28331846FFF700FE6D
:103340000346002BEED1039B93F82230002B10D1C3
:10335000039B93F8213003F00303002B09D1039B57
:103360005B69039A12691A61039B1B69039A52698C
:103370005A610F20FFF7D4FC05B05DF804FB00BFD5
:10338000C80900200000000000000000000000004C
:1033900000B583B00190FFF743FE0198FFF768FE88
:1033A000FFF74EFE03B05DF804FB00BF0000000015
:1033B00000B585B001900091FFF752FE0390009B8D
:1033C000002B02D14FF0FF330AE0019B039A1A60F1
:1033D000039B019A5A6200990320FFF709FD0346F7
:1033E000184605B05DF804FB000000000000000076
:1033F00000B585B001900091019B1B68002B0BD09C
:10340000019B1B680393019B00221A60039B009A97
:103410005A620398FFF714FC05B05DF804FB00BF87
:1034200000B583B001900091009B002B02D14FF0BA
:10343000FF330AE0074B9B6901991846FFF7C0FD6F
:1034400000990420FFF7D4FC0346184603B05DF84A
:1034500004FB00BFC80900200000000000000000BD
:1034600000B583B0019000910198FFF789FD0346F4
:10347000002B03D000990198FFF712FE03B05DF80E
:1034800004FB00BF0000000000000000000000007E
:103490002DE9100884B0039002910192039BDB6830
:1034A0005A1C039BDA60039B9B68029AD21A019B09
:1034B000D21A039B9A60039BD3E90412039B9B6877
:1034C0009B464FF0000C1BEB01034CEB0204039AEC
:1034D000C2E90434039B9A68039B5B689A4203D950
:1034E000039B9A68039B5A60039B9A68039B1B6823
:1034F0009A4203D2039B9A68039B1A6004B0BDE80A
:1035000010087047000000000000000000000000EC
:1035100000B589B00E4B0022DA676B46184600F002
:103520001FF8042307936B46184600F039F86B46E2
:10353000184600F045F8079B013B0793079B002BBB
:10354000F1D1009B024AD36709B05DF804FB00BFCC
:10355000C80900200000000000000000000000007A
:1035600010B483B00190019B4FF0FF321A60019BB1
:1035700000225A60019B00229A60019B0022DA60BF
:10358000019A4FF000034FF00004C2E9043403B085
:1035900010BC7047000000000000000000000000A8
:1035A00082B00190024B5A68019B9A6002B070474A
:1035B000001000E00000000000000000000000001B
:1035C00000B583B00190054B5968054BDB6F1A4677
:1035D0000198FFF75DFF03B05DF804FB001000E009
:1035E000C8090020000000000000000000000000EA
:1035F00082B00190019B019A1A60019B019A5A6066
:1036000002B0704700000000000000000000000051
:1036100000B583B00190019B002B02D10648FEF754
:10362000A7FF019B1846FFF7E3FF019B00229A606A
:1036300003B05DF804FB00BF044D0008000000006B
:1036400000B585B001900091FFF772F8019B002B47
:1036500002D11448FEF78CFF019B1B68039319E00D
:10366000039BDA68009B1A43039BDA60009B002BE4
:1036700005D0039B1A69009B1340002B07D0039BC6
:103680005A68039B9B681946104600F011F8039B8B
:103690001B680393039A019B9A42E1D105B05DF840
:1036A00004FB00BF144D00080000000000000000F3
:1036B00000B583B001900091FFF73AF8019B002B11
:1036C00002D11648FEF754FF019B5A6B009B1A4328
:1036D000019B5A63019B93F820300A2B06D1019B72
:1036E0005A6B019B5B6A1340002B0DD1019B93F831
:1036F00020300B2B0ED1019B5A6B019B5B6A1A4049
:10370000019B5B6A9A4205D1019B00225A62019893
:10371000FFF796FA03B05DF804FB00BF2C4D0008DC
:1037200000B583B020230193019B83F31188FEF73A
:103730004FFF03B05DF804FB000000000000000034
:1037400000B583B0FEF75CFF00230193019B83F378
:10375000118803B05DF804FB0000000000000000C9
:10376000034B044A1A60024B034A5A60704700BF79
:10377000480A002000150020005000200000000032
:1037800000B587B0039002910192FEF7D1FF029B32
:10379000002B05D0029B5A1E029B1340002B02D027
:1037A0001248FEF7E5FE124B5A68039B5B42134436
:1037B0001A46029B5B4213400593019B5B42059AAC
:1037C000134404930A4B1B68049A9A4204D3084B8F
:1037D0005B68049A9A4201D9002303E0044A049BDF
:1037E0005360059B184607B05DF804FB3C4D00088C
:1037F000480A002000000000000000000000000057
:1038000000B587B0039002910192FFF789FF019AFA
:1038100002990398FFF7B4FF0590FFF791FF059B0E
:10382000184607B05DF804FB00000000000000002F
:1038300008B5064B064A1A60044B00225A60034B37
:1038400000229A600348FFF7E3FE08BD500A0020FB
:10385000013800085C0A00200000000000000000A1
:1038600000B585B00390029101920093039B002B59
:103870000ED0029B032B0BD9019B032B08D9019B74
:10388000002B05D0019B5A1E019B1340002B02D038
:103890000848FEF76DFE039B00221A60039B029A04
:1038A0005A60039B019A9A60039B009ADA6005B004
:1038B0005DF804FB504D000800000000000000000F
:1038C00000B583B001900091002200990198FFF7A4
:1038D00057FF0346184603B05DF804FB00000000E4
:1038E00000B585B0039002910192019B04220299D8
:1038F0000398FFF7B5FF05B05DF804FB000000007A
:1039000082B00190019B019A1A6002B0704700BF1B
:1039100008B51048FFF77CFE0F48FFF7F1FF0F4A8C
:1039200014210F48FFF7DCFF0E48FFF7E9FF0E48B0
:10393000FFF7E6FF094A1C210C48FFF7D1FF0C48AE
:10394000FFF7DEFF0B48FFF7DBFF0B48FFF7D8FF61
:1039500008BD00BF6C0A00207C0A0020C1380008A6
:10396000800A0020900A0020940A0020980A002073
:10397000A80A0020AC0A0020B00A002000000000C5
:1039800084B00190019B03F0070303930A4BDB68AB
:103990000293029A4FF6FF0313400293039B1A020D
:1039A000029B134343F0BF6343F400330293024A84
:1039B000029BD36004B0704700ED00E000000000FF
:1039C00082B0034600918DF807309DF90730002B37
:1039D0000ADB009BDAB20B499DF907301201D2B223
:1039E0000B4483F800230BE0009BDAB206499DF8F4
:1039F000073003F00F03043B1201D2B20B441A76D6
:103A000002B0704700E100E000ED00E000000000BF
:103A100084B0EFF309830093009B0393039B20334F
:103A20000393039B0193019B83F309880023029373
:103A3000029B83F3118804B0704700BF00000000B0
:103A400000B583B020230193019B83F3118862B6F4
:103A50000320FFF795FF0C4BDB680B4A43F08073A4
:103A6000D3600A4B1B68094A43F00103136001212C
:103A70006FF00400FFF7A4FF02216FF00100FFF7D1
:103A80009FFF03B05DF804FBF0ED00E0001000E0E4
:103A900000B587B020230393039B83F31188174B52
:103AA0005B6803F40063002B1FD0EFF309830193DD
:103AB000019B0593059B203B0593059B0493049B69
:103AC0004FF08072DA61059B0293029B83F30988B1
:103AD000FFF7F6F90346002B03D0094A049B9A61CD
:103AE00008E0084A049B9A6104E000230093009BCD
:103AF00083F3118807B05DF804FB00BF00ED00E020
:103B000067020008720200080000000000000000C8
:103B100008B5FCF785FE0346184608BD0000000006
:103B200000B583B020230193019B83F31188FEF736
:103B30004FFD03B05DF804FB000000000000000032
:103B400000B583B0FEF75CFD00230193019B83F376
:103B5000118803B05DF804FB0000000000000000C5
:103B600008B5FFF7D5FF0346184608BD0000000062
:103B700000B583B0FFF7D4FFFFF7F2FF0346ADF8BF
:103B80000630FFF7DDFFBDF80630184603B05DF8DC
:103B900004FB00BF00000000000000000000000067
:103BA00082B00190024B9B69019A9A6102B0704702
:103BB000C809002000000000000000000000000014
:103BC00000B583B001900948FFF7EAFF084B4FF4B6
:103BD00080525A61C820FFF7DBFB054B4FF480523F
:103BE0001A61C820FFF7D4FBF0E700BF6856000851
:103BF0000010014000000000000000000000000074
:103C000000B585B0FCF78CFDFEF782FC0023009325
:103C1000254B80224FF4A4712448FFF711FB244860
:103C2000FDF706FB23492248FDF71AFB00F080FB55
:103C300000F09EFB4FF4106200211F4800F08AFE46
:103C4000FFF796FF0346ADF80A301C491A4800F00A
:103C5000BFFCFFF78DFF0346ADF808300023039348
:103C600010E0039B03F00103002B04D01449134818
:103C700000F0EEFC03E01149114800F0E9FC039B61
:103C800001330393039B0E2BEBD90C490B4800F037
:103C90009FFC0A49094800F09BFC00F0F1FC4FF43E
:103CA0007A70FFF775FBFAE7C13B0008B80A0020FD
:103CB0004008002070560008000C0020684D0008E5
:103CC0008456000800000000000000000000000012
:103CD00088B001900091009B01330793079B03F08C
:103CE0000103002B14D0079BC3F17F030493049BB3
:103CF000DB080393049B03F00703C02242FA03F39B
:103D0000D9B2019A039B134434330A461A7011E066
:103D1000079B023B0693069BDB080593069B03F07B
:103D20000703C02242FA03F3D9B2019A059B134458
:103D30000A461A7008B0704700000000000000003A
:103D400086B00292019303468DF80F300B468DF832
:103D50000E30002305930023059379E00122059B93
:103D600002FA03F38DF812309DF80E30032B42D87F
:103D700001A252F823F000BF893D0008A53D0008CC
:103D8000C13D0008DD3D00089DF80F209DF8123070
:103D90001340DBB2002B01D0022300E003238DF897
:103DA000133028E09DF80F209DF812301340DBB24D
:103DB000002B01D0002300E002238DF813301AE01D
:103DC0009DF80F209DF812301340DBB2002B01D07C
:103DD000002300E003238DF813300CE09DF80F2042
:103DE0009DF812301340DBB2002B01D0032300E01A
:103DF00002238DF81330059B032B13D8029B1B78ED
:103E000059B29DF81300059A1346DB079B1A5B0015
:103E1000063300FA03F35BB20B435BB2DAB2029BE8
:103E20001A7012E0019B1B7859B29DF81300059A95
:103E30001346DB079B1A5B000E3300FA03F35BB2F9
:103E40000B435BB2DAB2019B1A70059B01330593F9
:103E5000059B072B82D906B0704700BF0000000009
:103E600008B5FCF7DDFC0346184608BD000000005D
:103E700000B583B020230193019B83F31188FEF7E3
:103E8000A7FB03B05DF804FB000000000000000089
:103E900000B583B0FEF7B4FB00230193019B83F3CD
:103EA000118803B05DF804FB000000000000000072
:103EB00008B5FFF7D5FF0346184608BD000000000F
:103EC00000B583B0FFF7D4FFFFF7F2FF0346ADF86C
:103ED0000630FFF7DDFFBDF80630184603B05DF889
:103EE00004FB00BF00000000000000000000000014
:103EF00000B59DB001900B468DF80330FFF7E0FF51
:103F00000346ADF866309DF80330032B01D1AA2398
:103F100000E000238DF8653000231B9300231B93E2
:103F200053E004AB45220021184600F013FD04AB1A
:103F30001B991846FFF7CCFE9DF865308DF854307C
:103F400000231A9300231A9325E01B9A1346DB00E3
:103F500013445B001A46019B1A441A9BC3F11103D8
:103F6000D35C8DF860301A9B5B0004AA10331344B5
:103F700017931A9B5B00013304AA10331344169362
:103F80009DF803109DF86000169B179AFFF7D8FE66
:103F90001A9B01331A931A9B112BD6D904AB4522D5
:103FA00019460A2000F064F902238DF861300723D6
:103FB0008DF80F300DF10F019DF861300122184688
:103FC00000F056F91B9B01331B931B9B7F2BA8D939
:103FD000FFF776FF0346ADF862301DB05DF804FBD5
:103FE00000B59DB001900091AA238DF862300023A6
:103FF0001B9300231B93B4E003AB4522002118461A
:1040000000F0A8FC03AB1B991846FFF761FE9DF872
:1040100062308DF8503000231A9300231A9385E004
:104020001B9A1346DB0013445B001A46019B1A449B
:104030001A9BC3F11103D35C8DF860301B9A1346B1
:10404000DB0013445B001A46009B1A441A9BC3F121
:104050001103D35C8DF85F301A9B5B0003AA103309
:10406000134416931A9B5B00013303AA10331344C5
:104070001593002319930023199351E00122199BF2
:1040800002FA03F38DF853309DF860209DF85F30FD
:104090005340DAB29DF853301340DBB2002B03D10A
:1040A00000238DF863300EE09DF85F209DF85330BB
:1040B0001340DBB2002B03D003238DF8633002E002
:1040C00002238DF86330199B032B13D8169B1B78A2
:1040D00059B29DF86300199A1346DB079B1A5B00DF
:1040E000063300FA03F35BB20B435BB2DAB2169B02
:1040F0001A7012E0159B1B7859B29DF86300199A4B
:104100001346DB079B1A5B000E3300FA03F35BB226
:104110000B435BB2DAB2159B1A70199B01331993EA
:10412000199B072BAAD91A9B01331A931A9B112B9F
:104130007FF676AF03AB452219460A2000F098F8C7
:1041400002238DF8613007238DF80B300DF10B0140
:104150009DF861300122184600F08AF81B9B01335C
:104160001B931B9B7F2B7FF647AF1DB05DF804FBB5
:1041700000B595B0AA238DF84B300023139300238C
:10418000139325E001AB45220021184600F0E2FB25
:1041900001AB13991846FFF79BFD9DF84B308DF846
:1041A000483001AB452219460A2000F061F802238D
:1041B0008DF84A3007238DF803300DF103019DF887
:1041C0004A300122184600F053F8139B0133139331
:1041D000139B7F2BD6D915B05DF804FB00000000BF
:1041E00000B595B002AB45220021184600F0B2FBA5
:1041F000AA238DF84C3002AB452219460A2000F064
:1042000037F802238DF84F3007238DF807300DF172
:1042100007019DF84F300122184600F029F815B02B
:104220005DF804FB0000000000000000000000003A
:1042300000B583B071238DF8073000238DF8063068
:1042400000F0A6FA0DF107030121184600F0B0FABC
:104250000DF106030121184600F0BAFA00F0A0FAA9
:104260009DF80630184603B05DF804FB000000001E
:1042700000B587B00346029101928DF80F3070238C
:104280008DF8173072238DF8163000F081FA0DF199
:1042900017030121184600F08BFA0DF10F030121DD
:1042A000184600F085FA00F07BFA00F071FA0DF183
:1042B00016030121184600F07BFA0199029800F0DC
:1042C00077FA00F06DFA07B05DF804FB000000001B
:1042D00000B587B00346029101928DF80F3070232C
:1042E0008DF8173073238DF8163000F051FA0DF168
:1042F00017030121184600F05BFA0DF10F030121AD
:10430000184600F055FA00F04BFA00F041FA0DF1B2
:1043100016030121184600F04BFA0199029800F0AB
:1043200057FA00F03DFA07B05DF804FB000000000A
:1043300008B500F07DFA00F08BFA642000F0A8FACE
:1043400000F08EFA00F02CFA00F092FA052000F04E
:104350009FFA00F095FA052000F09AFA00F088FA2A
:10436000052000F095FA08BD0000000000000000E4
:1043700000B589B001238DF81F3007E000F0D0FAB6
:1043800003468DF81F30012000F082FA9DF81F309F
:10439000002BF3D1FFF74CFF03468DF817309DF843
:1043A0001730122B02D0864800F0CAFA02238DF88B
:1043B000163040238DF80C3003A99DF816300122E9
:1043C0001846FFF755FF0F238DF8163069469DF804
:1043D000163001221846FFF77BFF9DF800305BB2D4
:1043E000002B02DB774800F0ABFA0B238DF8163078
:1043F00002238DF80C3003A99DF8163001221846CF
:10440000FFF736FF01238DF8163000238DF80C30AE
:1044100000238DF80D3000238DF80E3003238DF826
:104420000F30FC238DF8103000238DF8113000235D
:104430008DF81230FF238DF8133003A99DF8163044
:1044400008221846FFF714FF07238DF81630D123F2
:104450008DF80C3003A99DF8163001221846FFF79D
:1044600007FF08238DF8163002238DF80C3003A9BE
:104470009DF8163001221846FFF7FAFE09238DF841
:104480001630C2238DF80C3003A99DF81630012296
:104490001846FFF7EDFE04238DF8163003238DF840
:1044A0000C3003A99DF8163001221846FFF7E0FEF4
:1044B00003238DF8163001238DF80C3003A99DF8E5
:1044C000163001221846FFF7D3FE03238DF816306D
:1044D00000238DF80C3003A99DF8163001221846F0
:1044E000FFF7C6FE052000F0D3F900238DF81E303B
:1044F00000230693012306934BE0069B032B02D96E
:10450000314800F01DFA05238DF8163001238DF88F
:104510000C3003A99DF8163001221846FFF7A8FEBB
:10452000AA2000F0B5F905238DF8163003238DF885
:104530000C3003A99DF8163001221846FFF798FEAB
:104540006E2000F0A5F905238DF816300F238DF8A5
:104550000C3003A99DF8163001221846FFF788FE9B
:104560003C2000F095F90F238DF8163069469DF830
:10457000163001221846FFF7ABFE9DF8003003F01D
:104580004003002B02D001238DF81E30069B01331F
:1045900006939DF81E3083F00103DBB2002BACD1F3
:1045A00002238DF8163006238DF80C3003A99DF8F0
:1045B000163001221846FFF75BFE09B05DF804FBD8
:1045C000845F0008945F0008A45F000800000000FA
:1045D00000B585B00190009100230393002303935D
:1045E00006E000210198FFF783FC039B013303934E
:1045F000039B032BF5D90023039306E001210198C7
:10460000FFF776FC039B01330393039B032BF5D940
:104610000023039306E002210098FFF769FC039B47
:1046200001330393039B032BF5D90023039306E087
:1046300003210098FFF75CFC039B01330393039B6A
:10464000032BF5D905B05DF804FB00BF00000000A6
:1046500000B585B0019000910023039300230393DC
:1046600006E000990198FFF7BBFC039B013303931D
:10467000039B032BF5D905B05DF804FB0000000097
:1046800000B583B0FFF774FDFFF7AAFDC82000F066
:10469000FFF80B238DF8073000238DF806300DF15D
:1046A00006019DF8073001221846FFF7E1FD0323BC
:1046B0008DF8073001238DF806300DF106019DF8C5
:1046C000073001221846FFF7D3FD05238DF8073088
:1046D00003238DF806300DF106019DF80730012205
:1046E0001846FFF7C5FD05238DF8073001238DF827
:1046F00006300DF106019DF8073001221846FFF73C
:10470000B7FD04238DF8073080238DF806300DF1B6
:1047100006019DF8073001221846FFF7A9FD052381
:104720008DF8073000238DF806300DF106019DF855
:10473000073001221846FFF79BFD07238DF807304D
:1047400001238DF806300DF106019DF80730012296
:104750001846FFF78DFD00F04BF800F059F800F017
:1047600077F80A2000F094F800F08AF800F018F8C2
:1047700000F066F8C82000F08BF800F059F803B09C
:104780005DF804FB000000000000000000000000D5
:1047900008B50248FCF784FD08BD00BF40080020B2
:1047A00008B50248FCF79CFD08BD00BF400800208A
:1047B00000B583B001900091019A00990248FCF77E
:1047C000AFFD03B05DF804FB4008002000000000CE
:1047D00000B583B001900091019A00990248FCF75E
:1047E000D7FD03B05DF804FB400800200000000086
:1047F00008B506224FF400410348FDF799F8024B33
:104800004FF400425A6108BD000C01400000000056
:1048100008B506224FF400510348FDF789F8024B12
:104820004FF400525A6108BD000C01400000000026
:10483000024B4FF400625A61704700BF000C014008
:10484000024B4FF400621A61704700BF000C014038
:10485000024B4FF480621A61704700BF000C0140A8
:10486000024B4FF480625A61704700BF000C014058
:10487000014B08221A617047000801400000000047
:10488000014B08225A6170470008014000000000F7
:1048900070B582B00190019B1D464FF000062B467B
:1048A00034464FF000014FF00002620142EAD36249
:1048B00059010B4614465B1B64EB06044FF00001E4
:1048C0004FF00002A20042EA937299000B46144690
:1048D0005B1944EB06044FF000014FF00002220187
:1048E00042EA137219010B4614461946224640F259
:1048F000E7334FF00004CD1842EB0406284631465A
:104900004FF47A724FF00003FBF7B6FC03460C46F7
:104910001846FEF73DFD02B070BD00BF000000006C
:10492000054B9B689B0803F00103012B0CBF01237F
:104930000023DBB218467047000801400000000069
:1049400000B583B001900198FDF712FE03B05DF849
:1049500004FB00BFF0B4860743D0541E002A3ED0AB
:10496000CAB2034602E014F1FF3438D303F8012B36
:104970009D07F8D1032C2BD9CDB245EA05250F2C84
:1049800045EA054516D9A4F110073F0903F12006B1
:1049900006EB071603F1100242E9045542E90255FD
:1049A0001032B242F8D104F00F040137032C03EBAC
:1049B00007130DD91E462246043A032A46F8045B23
:1049C000FAD8221F22F003020432134404F0030435
:1049D0002CB1C9B21C4403F8011B9C42FBD1F0BCB2
:0849E000704714460346C5E7C9
:1049E800C05F0008001500200015002000150020F9
:1049F800C05F000800000000000000000000000088
:104A0800C05F000800000000000000000000000077
:104A1800C05F000800000000000000000000000067
:104A2800C05F000800000000000000000000000057
:104A3800C05F000800000000000000000000000047
:104A4800C05F000800000000000000000000000037
:104A5800C05F000800000000000000000000000027
:104A680069715F72656164006F715F7772697465FF
:104A78000000000069715265616454696D656F7565
:104A8800740000006F71577269746554696D656FC1
:104A98007574000000000000010F0008310F0008C5
:104AA800610F0008910F0008B10F0008E10F00081E
:104AB8000110000831100008611000085F63746C71
:104AC800000000007364496E636F6D696E6744612E
:104AD8007461490073706953746172740000000056
:104AE80073706953656C6563740000007370695571
:104AF8006E73656C6563740073706953656E6400EA
:104B0800737069526563656976650000000002404C
:104B180008000240010000000000000B00000240F5
:104B28001C000240020000000004010C00000240CA
:104B380030000240040000000008020D000002409E
:104B48004400024008000000000C030E0000024070
:104B580058000240100000000010040F000002403E
:104B68006C00024020000000001405100000024004
:104B7800800002404000000000180611646D615377
:104B8800747265616D416C6C6F63490004020408BE
:104B98000800030708080808080808080B0FFFFFA3
:104BA800444D41206661696C75726500FFFFFFFF27
:104BB8008834888888888888FF07FFFF888888EE77
:104BC8008833B3BBFFFFFFFF888804448833868897
:104BD800FFFFFFFF4488888888888888FFFFFFFFD9
:104BE800888888888888888869646C6500000000DF
:104BF800F04B0008F0080020C80900200100000060
:104C08000125000800000000636854696D6541646F
:104C180064580000535623330000000053562334D1
:104C28000000000053562335000000005356233679
:104C38000000000053562337000000005356233865
:104C4800000000005356233900000000535623315A
:104C58003000000053562331310000006368565479
:104C6800446F536574490000636854696D65416415
:104C78006458000063685654446F526573657449FC
:104C880000000000636853636852656164794900F5
:104C98006368536368526561647941686561644912
:104CA800000000006E6F6E616D65000063685468F7
:104CB8006443726561746553757370656E64656489
:104CC8004900000063685468644372656174655301
:104CD80074617469630000006368546864536C65A8
:104CE800657053006D61696E001641300402440816
:104CF8000C1014181C2021220000000063684D7459
:104D0800784F626A656374496E69740063684576B2
:104D18007442726F616463617374466C616773494E
:104D28000000000063684576745369676E616C49DA
:104D3800000000006368436F7265416C6C6F6346E6
:104D4800726F6D546F7049006368506F6F6C4F627B
:104D58006A656374496E6974416C69676E6564005D
:104D6800000000000000000000000000000000003B
:104D7800000000000000000000000000000000002B
:104D880000000000000000000000000000001C7887
:104D98006300000000000000000000000000001F89
:104DA8008F8230C4000000000000000000000000F6
:104DB8000F1FF0E08C2240000000000000000000FF
:104DC8000001FFF83C304011000000000000000026
:104DD8000000007FFFFE0E100000810000000000B0
:104DE8000000000007FFFFBF82080020000000004D
:104DF800000000000000FFFFFFC7C101FF1B80107B
:104E0800000000000000000FFFFFEFC1C07C02009F
:104E18001C00000000000000007FFFFFF8E04F8644
:104E2800FFFF018000000000000007FFFFFFFC7388
:104E3800BFFFFFFFF0780000000000007FFFFFFFCA
:104E48009C3FFEF7FFFFF008000000000003FFFF93
:104E5800FFFFC6FFC0F0FFE03F0700000000000FA3
:104E6800FFFFFFFFFFF8000003FFFE210000000026
:104E7800007FFFFFFFFFFF807FFFFF8003F0E00060
:104E8800000001FFFFFFFFFFFC0000000007FFC05C
:104E98002000000003FFFFFFFFFFE00000001FF0FD
:104EA800003E100000000FFFFFFFFFFF8000000022
:104EB80000003FFF880000001FFFFFFFFFFC00000D
:104EC8000001FFFFF800840000003FFFFFFFFFF034
:104ED8000000000000000001C2000000FFFFFFFF0B
:104EE800FFC00000000003FFFFFFC2000001FFFF3A
:104EF800FFFFFF0000000100000000001100000398
:104F0800FFFFFFFFFC000000000000000FFFF100A2
:104F18000007FFFFFFFFF8000000000007FFFFFF8A
:104F2800F080000FFFFFFFFFE0000000000000001E
:104F380000000080001FFFFFFFFFC000000000000E
:104F4800000000000C00003FFFFFFFFF0000000012
:104F58000000000000007E40007FFFFFFFFE000011
:104F68000000000000000000004000FFFFFFFFFC01
:104F780000000000000000000000024000FFFFFFEA
:104F8800FFF000000000000000000000024001FFE8
:104F9800FFFFFFE0000000000000087FFFFFF8406F
:104FA80001FFFFFFFFC0000000000000000000003C
:104FB800004003FFFFFFFF000000000000000000AA
:104FC800000000C003FFFFFFFE000000000000001B
:104FD80000000000008007FFFFFFFC000000000049
:104FE80000000003FFFFFC8007FFFFFFF800000040
:104FF8000000000000000000018007FFFFFFF00034
:1050080000000000000000000000010007FFFFFF93
:10501800C00000000000000000000000020007FFC0
:10502800FFFF80000000000000000000F83FFE00C5
:1050380007FFFFFF00000000000000000000000064
:10504800040007FFFFFE0000000000000000000051
:105058000000080007FFFFFC00000000000000003F
:1050680000000000100007FFFFF80000000000002B
:105078000000000007FFE00007FFFFF0000000004D
:105088000000000000000000000003FFFFE0000037
:1050980000000000000000000000000003FFFF8087
:1050A8000000000000000000000001FF000001FFF8
:1050B800FF000000000000000000000000000000E9
:1050C80000FFFE000000000000000000000001F8E2
:1050D8000000007FFC00000000000000000000004D
:1050E800000000000007F0000000000000000000C1
:1050F80000000000000000000000000000000000A8
:105108000000000000000000000000000000000097
:105118000000000000000000000000000000000087
:105128000000000000000000000000000000000077
:105138000000000000000000000000000000000067
:105148000000000000000000000000000000000057
:105158000000000000000000000000000000000047
:105168000000000000000000000000000000000037
:105178000000000000000000000000000000000027
:105188000000000000000000000000000000000017
:105198000000000000000000000000000000000007
:1051A80000000000000000000000000000000000F7
:1051B80000000000000000000000000000000000E7
:1051C80000000000000000000000000000000000D7
:1051D80000000000000000000000000000000000C7
:1051E80000000000000000000000000000000000B7
:1051F80000000000000000000000000000000000A7
:105208000000000000000000000000000000000096
:105218000000000000000000000000000000000086
:105228000000000000000000000000000200000074
:105238000000000000000000000000000000000066
:105248000000000000000000000000000000000056
:105258000040000000000000000000000000000006
:105268000000000004000000000000000000000032
:105278000000000000000000000000000000000026
:105288000000000000000004000000000000000012
:105298000000000000000000000000000000000006
:1052A8000000000000000000000000008000000076
:1052B80000000000000000000000000000000000E6
:1052C80000000000000000000000000000000000D6
:1052D80000000000000000000000000000000000C6
:1052E80000000800000000000001000000000000AD
:1052F80000000000000000000000000000000000A6
:105308000000000000000101000000000000000093
:105318000000000000000000000080000000000203
:105328000000000000000000000000004000000035
:105338000000000000000000000000000000000065
:105348000000000000000000000000000000000055
:105358000000000000000000000000000000000045
:105368000002000000000000000000000000000033
:10537800000000000000000000080000000000001D
:105388000000000000000000000000000000000015
:1053980000000000000000002000000000000000E5
:1053A80000000000000000000000004000000000B5
:1053B8000000000000000000000000000400008061
:1053C80000000000000000000000000000000010C5
:1053D8000080000000000000000000000000000045
:1053E800008800000000000000000000000000002D
:1053F8000000000000008000000000000000000025
:105408000000000000000400004000000000000050
:10541800000000000000000800400100000000003B
:1054280000000000000000000000024040000000F2
:105438000000000000000000000000000000000064
:1054480000000000000000000000000000009000C4
:105458000000000000000000000000000000000044
:10546800002007000000000000000000000000000D
:10547800000014A020000000000000000000000050
:1054880000000000022022000000000000000000D0
:1054980000000000000003400000000000000000C1
:1054A800000000000000000001801C000000000057
:1054B8000000000000000000000000739C000000D5
:1054C8000000000000000000000000000037DC00C1
:1054D8000000000000000000000000000000001FA5
:1054E800980000000000000000000000000000001C
:1054F800000F9800000000000000000000000000FD
:105508000000003F1800000000000000000000003C
:1055180000000000007FF80000000000000000000C
:10552800000000000000007FF800000000000000FC
:10553800000000000000000001FEB80000000000AC
:105548000000000000000000000007FFFF0000004E
:1055580000000000000000000000000007FFFFC07E
:1055680000000000000000000000000000000BFF29
:10557800FFF800000000000000000000000000002C
:1055880005FFFFFC00000000000000000000000014
:10559800000002FFFFF4000000000000000000000F
:1055A80000000000017FFFFC000000000000000078
:1055B80000000000000000BFFFFC00000000000029
:1055C8000000000000000000006FFCFE000000006A
:1055D800000000000000000000000039F31F000078
:1055E800000000000000000000000000000FBE1FC7
:1055F8008000000000000000000000000000000023
:10560800F80FFC000000000000000000000000008F
:105618000000000FF800000000000000000000007B
:105628000000000000000000000000000000000072
:105638000000000000000000000000000000000062
:105648000000000000000000000000000000000052
:105658000000000000000000000000000000000042
:10566800626C696E6B65720000000000000000004B
:10567800000C01400C0000001400000000000000B5
:105688000000000000000000000000000000000012
:105698000000000000000000000000000000000002
:1056A800000000000000000000001C7863000000FB
:1056B80000000000000000000000001F8F8230C4BE
:1056C8000000000000000000000000000F1FF0E0D4
:1056D8008C22400000000000000000000001FFF8DC
:1056E8003C30401100000000000000000000007F76
:1056F800FFFE0E1000008100000000000000000006
:1057080007FFFFBF82080020000000000000000023
:105718000000FFFFFFC7C101FF1B80100000000051
:105728000000000FFFFFEFC1C07C02001C0000005A
:1057380000000000007FFFFFF8E04F86FFFF0180B8
:1057480000000000000007FFFFFFFC73BFFFFFFF22
:10575800F0780000000000007FFFFFFF9C3FFEF78D
:10576800FFFFF008000000000003FFFFFFFFC6FF77
:10577800C0F0FFE03F0700000000000FFFFFFFFF41
:10578800FFF8000003FFFE2100000000007FFFFF7C
:10579800FFFFFF807FFFFF8003F0E000000001FFB4
:1057A800FFFFFFFFFC0000000007FFC02000000013
:1057B80003FFFFFFFFFFE00000001FF0003E1000A6
:1057C80000000FFFFFFFFFFF8000000000003FFF09
:1057D800880000001FFFFFFFFFFC00000001FFFF23
:1057E800F800840000003FFFFFFFFFF0000000000A
:1057F80000000001C2000000FFFFFFFFFFC0000023
:10580800000003FFFFFFC2000001FFFFFFFFFF00D2
:10581800000001000000000011000003FFFFFFFF6F
:10582800FC000000000000000FFFF1000007FFFF70
:10583800FFFFF8000000000007FFFFFFF080000FE7
:10584800FFFFFFFFE00000000000000000000080F4
:10585800001FFFFFFFFFC000000000000000000065
:105868000C00003FFFFFFFFF0000000000000000E9
:1058780000007E40007FFFFFFFFE000000000000E8
:1058880000000000004000FFFFFFFFFC00000000D8
:10589800000000000000024000FFFFFFFFF00000D2
:1058A8000000000000000000024001FFFFFFFFE0D1
:1058B800000000000000087FFFFFF84001FFFFFF25
:1058C800FFC000000000000000000000004003FFCF
:1058D800FFFFFF000000000000000000000000C003
:1058E80003FFFFFFFE0000000000000000000000B2
:1058F800008007FFFFFFFC0000000000000000031D
:10590800FFFFFC8007FFFFFFF80000000000000019
:1059180000000000018007FFFFFFF000000000000A
:10592800000000000000010007FFFFFFC0000000AA
:105938000000000000000000020007FFFFFF8000D9
:105948000000000000000000F83FFE0007FFFFFF16
:10595800000000000000000000000000040007FF35
:10596800FFFE00000000000000000000000008002A
:1059780007FFFFFC0000000000000000000000001E
:10598800100007FFFFF80000000000000000000002
:1059980007FFE00007FFFFF0000000000000000024
:1059A80000000000000003FFFFE00000000000000E
:1059B800000000000000000003FFFF80000000005E
:1059C80000000000000001FF000001FFFF000000D0
:1059D80000000000000000000000000000FFFE00C2
:1059E8000000000000000000000001F80000007F37
:1059F800FC000000000000000000000000000000A3
:105A08000007F00000000000000000000000000097
:105A1800000000000000000000000000000000007E
:105A2800000000000000000000000000000000006E
:105A3800000000000000000000000000000000005E
:105A4800000000000000000000000000000000004E
:105A5800000000000000000000000000000000003E
:105A6800000000000000000000000000000000002E
:105A7800000000000000000000000000000000001E
:105A8800000000000000000000000000000000000E
:105A980000000000000000000000000000000000FE
:105AA80000000000000000000000000000000000EE
:105AB80000000000000000000000000000000000DE
:105AC80000000000000000000000000000000000CE
